:03000000020800F3
:0C080000787FE4F6D8FD75811A020847E5
:1008E1000F0A00065B4F666D7D7F6F777C395E79FD
:0108F1007195
:10088C00E4F508F509740A2509F8E6F5A0E4F5196C
:10089C00F51AAE19AF1AE4FCFD7B407A9CF9F8D33B
:1008AC001208CB400A051AE51A70E7051980E30512
:0F08BC0009E50970020508640F450870C880C17E
:10080C0002088CE493A3F8E493A34003F68001F26E
:10081C0008DFF48029E493A3F85407240CC8C333ED
:10082C00C4540F4420C8834004F456800146F6DFBC
:10083C00E4800B01020408102040809008E1E47E63
:10084C00019360BCA3FF543F30E509541FFEE493B1
:10085C00A360010ECF54C025E060A840B8E493A378
:10086C00FAE493A3F8E493A3C8C582C8CAC583CAA3
:10087C00F0A3C8C582C8CAC583CADFE9DEE780BE5B
:0108F2000005
:1008CB00EB9FF5F0EA9E42F0E99D42F0EC6480C8A4
:0608DB0064809845F02244
:00000001FF
